:03000000020006F5
:03005F0002000399
:0300030002006296
:200062007E007F00EE2408F8A6800EBE00010FC3EE940AEF6480948040EA75120A751300F4
:2000820090000875F0401200A77E007F00EE2408F987A00EBE00010FC3EE940AEF6480949F
:2000A2008040EA80FE85821485831585F016E51224FFFBE51334FFFC751700A8177900C390
:2000C200E89BE964808CF063F08095F0400122751800A8177A00E512C398F8E5139AFA18E3
:2000E200B8FF011A851819751A00C3E51998E51A64808AF063F08095F05074E5182514F5EA
:200102001BE43515F51C85161D851B82851C83851DF0120191FA74012519F8E4351AF9E896
:200122002514F8E93515F9AF16888289838FF0120191F8C39A503374012519FEE4351AFFA7
:20014200EE2514FEEF3515FFAD168E828F838DF0120191F9851B82851C83851DF0120176E0
:140162008E828F838DF0EA12017605180200D405170200BDA9
:06003500E478FFF6D8FD9F
:200013007900E94400601B7A009001B1780075A000E493F2A308B8000205A0D9F4DAF275E2
:02003300A0FF2C
:1B01760020F71130F6138883A88220F509F6A8837583002280FEF280F5F02288
:20003B007800E84400600A790075A000E4F309D8FC7800E84400600C7900900000E4F0A3C5
:04005B00D8FCD9FAFA
:0D00060075811D1201ADE58260030200034B
:1C01910020F71430F6148883A88220F507E6A88375830022E280F7E49322E0227D
:0401AD007582002235
:00000001FF
