:03000000020006F5
:03005F0002000399
:0300030002006296
:200062007E007F00EE2408F8A6800EBE00010FC3EE9432EF6480948040EA753A32753B0054
:2000820090000875F0401200A77E007F00EE2408F987A00EBE00010FC3EE9432EF64809477
:2000A2008040EA80FE85823C85833D85F03EE53A24FFFBE53B34FFFC753F00A83F7900C378
:2000C200E89BE964808CF063F08095F0400122754000A83F7A00E53AC398F8E53B9AFA1843
:2000E200B8FF011A854041754200C3E54198E54264808AF063F08095F05074E540253CF5D2
:2001020043E4353DF544853E458543828544838545F0120191FA74012541F8E43542F9E806
:20012200253CF8E9353DF9AF3E888289838FF0120191F8C39A503374012541FEE43542FFDF
:20014200EE253CFEEF353DFFAD3E8E828F838DF0120191F98543828544838545F0120176F0
:140162008E828F838DF0EA12017605400200D4053F0200BD59
:06003500E478FFF6D8FD9F
:200013007900E94400601B7A009001B1780075A000E493F2A308B8000205A0D9F4DAF275E2
:02003300A0FF2C
:1B01760020F71130F6138883A88220F509F6A8837583002280FEF280F5F02288
:20003B007800E84400600A790075A000E4F309D8FC7800E84400600C7900900000E4F0A3C5
:04005B00D8FCD9FAFA
:0D0006007581451201ADE582600302000323
:1C01910020F71430F6148883A88220F507E6A88375830022E280F7E49322E0227D
:0401AD007582002235
:00000001FF
