:03000000020006F5
:03005F0002000399
:0300030002006296
:200062007E007F00EE2408F8A6800EBE00010FC3EE9404EF6480948040EA750C03750D000D
:200082009000001200A47E007F00EE2408F987A00EBE00010FC3EE9404EF6480948040EAAB
:2000A20080FE85820E85830F850E10850F11850C12850D13E512250EF582E513350FF583AF
:2000C2007516027517001201DBAE82EE2408F987078F14751500C3E5129510E51364808559
:2000E20011F063F08095F05003020173AA10AB11EA2408F987077E00C3EF9514EE64808599
:2001020015F063F08095F050070ABA00E30B80E08A108B11AE12AF13EE2408F987038B0235
:200122007D00C3E5149AE51564808DF063F08095F050071EBEFF011F80DE8E128F13C3EE94
:200142009510EF64808511F063F08095F04087E5102408F886057C00A603A7050510E4B55D
:2001620010020511EE24FFF512EF34FFF5130200D8C3E50E9512E50F64808513F063F080A9
:2001820095F0500F85120C85130D850E82850F831200A4C3E510950CE5116480850DF06337
:1001A200F08095F050098510828511830200A42207
:06003500E478FFF6D8FD9F
:200013007900E94400601B7A00900217780075A000E493F2A308B8000205A0D9F4DAF2757B
:02003300A0FF2C
:20003B007800E84400600A790075A000E4F309D8FC7800E84400600C7900900000E4F0A3C5
:04005B00D8FCD9FAFA
:2001B2007A10E4FBFCE58225E0F582E58333F583EB33FBEC33FCEB9516F5F0EC9517400645
:0901D200FCABF0438201DADD22EE
:0D000600758117120213E5826003020003EA
:2001DB00C2D5E58330E70DD2D5E4C39582F582E49583F583E51730E70DB2D5E4C39516F5A3
:1801FB0016E49517F5171201B230D50BE4C39582F582E49583F583229A
:0402130075820022CE
:00000001FF
